{
  "address": "0xf6f5C3fb41d1237fc30ced6C7f95b10ea5aa4914",
  "abi": [
    {
      "anonymous": false,
      "inputs": [
        {
          "indexed": true,
          "internalType": "uint32",
          "name": "requestId",
          "type": "uint32"
        },
        {
          "indexed": false,
          "internalType": "uint256",
          "name": "randomNumber",
          "type": "uint256"
        }
      ],
      "name": "RandomNumberCompleted",
      "type": "event"
    },
    {
      "anonymous": false,
      "inputs": [
        {
          "indexed": true,
          "internalType": "uint32",
          "name": "requestId",
          "type": "uint32"
        },
        {
          "indexed": true,
          "internalType": "address",
          "name": "sender",
          "type": "address"
        }
      ],
      "name": "RandomNumberRequested",
      "type": "event"
    },
    {
      "inputs": [],
      "name": "getLastRequestId",
      "outputs": [
        {
          "internalType": "uint32",
          "name": "requestId",
          "type": "uint32"
        }
      ],
      "stateMutability": "view",
      "type": "function"
    },
    {
      "inputs": [],
      "name": "getRequestFee",
      "outputs": [
        {
          "internalType": "address",
          "name": "_feeToken",
          "type": "address"
        },
        {
          "internalType": "uint256",
          "name": "_requestFee",
          "type": "uint256"
        }
      ],
      "stateMutability": "view",
      "type": "function"
    },
    {
      "inputs": [
        {
          "internalType": "uint32",
          "name": "",
          "type": "uint32"
        }
      ],
      "name": "isRequestComplete",
      "outputs": [
        {
          "internalType": "bool",
          "name": "",
          "type": "bool"
        }
      ],
      "stateMutability": "view",
      "type": "function"
    },
    {
      "inputs": [
        {
          "internalType": "uint32",
          "name": "",
          "type": "uint32"
        }
      ],
      "name": "randomNumber",
      "outputs": [
        {
          "internalType": "uint256",
          "name": "",
          "type": "uint256"
        }
      ],
      "stateMutability": "nonpayable",
      "type": "function"
    },
    {
      "inputs": [],
      "name": "requestRandomNumber",
      "outputs": [
        {
          "internalType": "uint32",
          "name": "",
          "type": "uint32"
        },
        {
          "internalType": "uint32",
          "name": "",
          "type": "uint32"
        }
      ],
      "stateMutability": "nonpayable",
      "type": "function"
    },
    {
      "inputs": [
        {
          "internalType": "uint256",
          "name": "_random",
          "type": "uint256"
        }
      ],
      "name": "setRandomNumber",
      "outputs": [],
      "stateMutability": "nonpayable",
      "type": "function"
    },
    {
      "inputs": [
        {
          "internalType": "address",
          "name": "_feeToken",
          "type": "address"
        },
        {
          "internalType": "uint256",
          "name": "_requestFee",
          "type": "uint256"
        }
      ],
      "name": "setRequestFee",
      "outputs": [],
      "stateMutability": "nonpayable",
      "type": "function"
    }
  ],
  "transactionHash": "0x2807a2a9097e7876cd6d528f4ca9fb064c57f5840d8a95682b4ad373ca10b797",
  "args": [],
  "numDeployments": 1,
  "bytecode": "0x608060405234801561001057600080fd5b5061023e806100206000396000f3fe608060405234801561001057600080fd5b506004361061007d5760003560e01c80638678a7b21161005b5780638678a7b2146101055780639d2a5f9814610130578063d6bfea2814610165578063de1760fd146101845761007d565b80630d37b5371461008257806319c2b4c3146100ad5780633a19b9bc146100ce575b600080fd5b61008a6101b0565b604080516001600160a01b03909316835260208301919091528051918290030190f35b6100b56101c4565b6040805163ffffffff9092168252519081900360200190f35b6100f1600480360360208110156100e457600080fd5b503563ffffffff166101c9565b604080519115158252519081900360200190f35b61010d6101cf565b6040805163ffffffff938416815291909216602082015281519081900390910190f35b6101536004803603602081101561014657600080fd5b503563ffffffff166101d6565b60408051918252519081900360200190f35b6101826004803603602081101561017b57600080fd5b50356101dd565b005b6101826004803603604081101561019a57600080fd5b506001600160a01b0381351690602001356101e2565b6001546002546001600160a01b0390911691565b600190565b50600190565b6001809091565b5060005490565b600055565b600180546001600160a01b0319166001600160a01b03939093169290921790915560025556fea264697066735822122051eb97e78e49e8865e83cc6b4838d17cf7f39c8cb4ffe48418681c1f1c808dcd64736f6c63430006060033"
}